:1000000019C028C027C026C025C024C023C022C0D4
:1000100021C020C01FC01EC01DC01CC01CC01AC0F3
:1000200019C018C01BC2D1C1C6C114C013C012C0B0
:1000300011C010C011241FBECFEFD4E0DEBFCDBF72
:1000400021E0A0E0B1E001C01D92A736B207E1F7C0
:10005000DDD078C2D5CF1F920F920FB60F92112428
:100060002F934F935F936F937F938F939F93AF9350
:10007000BF9380916301882334F45E9A5C9A5D9A01
:100080005A9A5B9A96C081FF19C0809101019091A4
:10009000020101969093020180930101853691053A
:1000A00030F45E9A5C9A5D9A5A9A5B9A82C0833168
:1000B000914020F010920201109201018091000104
:1000C0008130E1F018F08230C9F150C05C9A209183
:1000D00066018DEC289F812D112486958695869545
:1000E000880F982F990F990F890F281B28B95B98B3
:1000F000809100018F5F8093000154C05B9A209132
:100100006601422F50E09DEC299F912D1124969578
:1001100096959695990F892F880F880F980F291B10
:10012000CA01821B91096AE070E0E5D168B95A986A
:10013000809100018F5F8093000134C05A9A209112
:1001400065018DEC289F812D1124869586958695D5
:10015000880F982F990F990F890F281B28B95D9840
:10016000809100018F5F809300011CC05D9A2091F7
:100170006501422F50E09DEC299F912D1124969509
:1001800096959695990F892F880F880F980F291BA0
:10019000CA01821B91096AE070E0ADD168B95C9830
:1001A0001092000180916401882311F05E9801C0D3
:1001B0005E9A8091630180FF02C05F9801C05F9AE0
:1001C000BF91AF919F918F917F916F915F914F916F
:1001D0002F910F900FBE0F901F9018958FE087BD45
:1001E00085E085BD82E084BDEEE6F0E0808182603E
:1001F0008083089518B88FE087B900001BB88EEF90
:100200008AB900008BB18C6F8BB90895CF93DF93BF
:10021000CDB7DEB728970FB6F894DEBF0FBECDBFBF
:10022000E3E6F1E081E08083118212821382E2DF53
:1002300046D0D4DF78947E0125E0E20EF11C0F2E2B
:10024000F3E6CF2EF1E0DF2EF02D84E690E086D0AD
:1002500089389105D1F784E690E080D08F3FEFEFA9
:100260009E0799F38C3F9105B1F78E010F5F1F4FE9
:10027000B12CF801108284E690E070D08F3FFFEF40
:100280009F0719F3F80181938F01B80EEE16FF0650
:1002900081F784E690E062D08F3FFFEF9F07A9F2DD
:1002A000B812D3CF89818F73F60183838A818F73CC
:1002B00082838B81817081838C818083C6CF1092F1
:1002C0004401109243011092460110924501109290
:1002D00048011092470110925A0110925901109250
:1002E0005C0110925B0110925E0110925D01109210
:1002F000C50081E08093C40088E98093C10086E056
:100300008093C2000895809143019091440120910F
:1003100045013091460182179307E9F0AC014F5F28
:100320005F4FFC01ED5FFE4F808190E0E7E4F1E07C
:10033000208131812150310931832083403451059E
:1003400018F4342F252F02C030E020E03093430111
:100350002093440108958FEF9FEF0895EF92FF924D
:100360000F931F93CF93DF937C01009721F02CF420
:100370008FEF9FEF19C0C7DF17C000E010E0C0ED9E
:10038000D7E0C1DF8F3F2FEF920771F48AE090E052
:10039000FE013197F1F70197D9F70F5F1F4FE01674
:1003A000F10679F78FEF9FEFDF91CF911F910F91BA
:1003B000FF90EF9008951F920F920FB60F921124A5
:1003C0000F900FBE0F901F9018951F920F920FB6AF
:1003D0000F9211242F933F934F938F939F93EF93FB
:1003E000FF938091590190915A0120915B013091C6
:1003F0005C018217930751F4E1ECF0E080818F7D7E
:10040000808310925E0110925D011CC09C012F5FE1
:100410003F4FFC01E75BFE4F4081EDE5F1E080815D
:1004200091810197918380832031310518F4922FB7
:10043000832F02C090E080E09093590180935A018D
:100440004093C600FF91EF919F918F914F913F9103
:100450002F910F900FBE0F901F9018951F920F9223
:100460000FB60F9211242F933F934F938F939F9327
:10047000EF93FF938091C0004091C600982F9C712C
:1004800031F0E1E6F1E09081892B808328C08091F2
:100490004501909146019C012F5F3F4FFC01ED5FAC
:1004A000FE4F40832034310510F020E030E0809191
:1004B0004301909144012817390731F4E0E6F1E057
:1004C0008081826080830BC0309346012093450178
:1004D000E7E4F1E080819181019691838083FF912F
:1004E000EF919F918F914F913F912F910F900FBE60
:1004F0000F901F90189597FB072E16F4009406D0C6
:1005000077FD08D00BD007FC05D03EF4909581957F
:100510009F4F0895709561957F4F0895AA1BBB1B4F
:1005200051E107C0AA1FBB1FA617B70710F0A61BF3
:10053000B70B881F991F5A95A9F780959095BC0114
:08054000CD010895F894FFCFEE
:00000001FF
