S00F00004D7578375365672E7372656385
S113000019C033C032C031C030C02FC02EC02DC083
S11300102CC02BC02AC029C028C027C027C025C097
S113002024C023C03DC2F3C1E8C11FC01EC01DC00F
S11300301CC01BC011241FBECFEFD4E0DEBFCDBF58
S113004011E0A0E0B1E0ECE8F5E002C005900D920B
S1130050A031B107D9F721E0A0E1B1E001C01D92C0
S1130060A737B207E1F7F4D08FC2CACF1F920F921D
S11300700FB60F9211242F934F935F936F937F9337
S11300808F939F93AF93BF93EF93FF9380917301EB
S1130090882334F45E9A5C9A5D9A5A9A5B9AA9C052
S11300A081FF19C0809111019091120101969093E2
S11300B01201809311018536910530F45E9A5C9AA1
S11300C05D9A5A9A5B9A95C08331914020F01092C0
S11300D012011092110180911001813009F120F078
S11300E0823009F442C05DC05C9AE09176018DECE7
S11300F0E89F812D1124869586958695880F982FE3
S1130100990F990F890FE81BF0E0E050FF4F8081B1
S113011088B95B98809110018F5F8093100162C051
S11301205B9A20917601422F50E09DEC299F912DFE
S11301301124969596959695990F892F880F880F77
S1130140980F291BCA01821B91096AE070E0F5D15E
S1130150FB01FF27E050FF4F808188B95A988091B6
S113016010018F5F809310013DC05A9AE091750190
S11301708DECE89F812D1124869586958695880FB0
S1130180982F990F990F890FE81BF0E0E050FF4F6B
S1130190808188B95D98809110018F5F80931001F0
S11301A021C05D9A20917501422F50E09DEC299F5A
S11301B0912D1124969596959695990F892F880FD0
S11301C0880F980F291BCA01821B91096AE070E00D
S11301D0B4D1FB01FF27E050FF4F808188B95C98C0
S11301E01092100180917401882311F05E9801C06F
S11301F05E9A8091730180FF02C05F9801C05F9A8C
S1130200FF91EF91BF91AF919F918F917F916F91EA
S11302105F914F912F910F900FBE0F901F901895E3
S11302208FE187BD85E085BD82E084BDEEE6F0E028
S1130230808182608083089518B88FE087B90000B8
S11302401BB88EEF8AB900008BB18C6F8BB90895FF
S1130250CF93DF93CDB7DEB728970FB6F894DEBF00
S11302600FBECDBFE3E7F1E081E08083118212820B
S11302701382E2DF46D0D4DF78947E0125E0E20EDB
S1130280F11C0F2EF3E7CF2EF1E0DF2EF02D84E6E4
S113029090E086D089389105D1F784E690E080D04B
S11302A08F3FEFEF9E0799F38C3F9105B1F78E01D5
S11302B00F5F1F4FB12CF801108284E690E070D0DC
S11302C08F3FFFEF9F0719F3F80181938F01B80E59
S11302D0EE16FF0681F784E690E062D08F3FFFEFD1
S11302E09F07A9F2B812D3CF89818F73F601838354
S11302F08A818F7382838B81817081838C818083D7
S1130300C6CF1092540110925301109256011092CC
S11303105501109258011092570110926A011092DF
S1130320690110926C0110926B0110926E0110928F
S11303306D011092C50083E08093C40088E9809326
S1130340C10086E08093C20008958091530190918A
S11303505401209155013091560182179307E9F019
S1130360AC014F5F5F4FFC01ED5EFE4F808190E07A
S1130370E7E5F1E020813181215031093183208387
S11303804034510518F4342F252F02C030E020E00A
S1130390309353012093540108958FEF9FEF0895F4
S11303A0EF92FF920F931F93CF93DF937C010097FB
S11303B021F02CF48FEF9FEF19C0C7DF17C000E0C6
S11303C010E0C0EADFE0C1DF8F3F2FEF920771F446
S11303D08AE090E0FE013197F1F70197D9F70F5FBA
S11303E01F4FE016F10679F78FEF9FEFDF91CF9162
S11303F01F910F91FF90EF9008951F920F920FB6E7
S11304000F9211240F900FBE0F901F9018951F92FA
S11304100F920FB60F9211242F933F934F938F9304
S11304209F93EF93FF938091690190916A012091CA
S11304306B0130916C018217930751F4E1ECF0E009
S113044080818F7D808310926E0110926D011CC09B
S11304509C012F5F3F4FFC01E75AFE4F4081EDE6C0
S1130460F1E080819181019791838083203131056E
S113047018F4922F832F02C090E080E090936901DA
S113048080936A014093C600FF91EF919F918F91F1
S11304904F913F912F910F900FBE0F901F90189581
S11304A01F920F920FB60F9211242F933F934F93E5
S11304B08F939F93EF93FF938091C0004091C60068
S11304C0982F9C7131F0E1E7F1E09081892B8083D2
S11304D028C080915501909156019C012F5F3F4F98
S11304E0FC01ED5EFE4F40832034310510F020E026
S11304F030E080915301909154012817390731F469
S1130500E0E7F1E08081826080830BC03093560184
S113051020935501E7E5F1E0808191810196918373
S11305208083FF91EF919F918F914F913F912F91F4
S11305300F900FBE0F901F90189597FB072E16F47F
S1130540009406D077FD08D00BD007FC05D03EF40C
S1130550909581959F4F0895709561957F4F08956B
S1130560AA1BBB1B51E107C0AA1FBB1FA617B707D5
S113057010F0A61BB70B881F991F5A95A9F78095F1
S10F05809095BC01CD010895F894FFCFC4
S113058C0001080904050C0D02030A0B06070E0FE3
S9030000FC
